:020000040000FA
:020000000528D1
:080008002B2883160313880165
:100010008316031385018312031301308500013019
:100020008312031390000C10831603130C1400307A
:10003000831203138800A001C0308B00FF30A100A1
:100040000A302002031D2028A001A10A21080F392F
:10005000302088002028A00A831203130C10090006
:1000600082073F3406345B344F3466346D347D345C
:1000700007347F346F3477347C3439345E347934E8
:040080007134803423
:043000000034003464
:00000001FF
