:020000040000FA
:100000008316031306148614880183120313A101B7
:10001000003021202720880006181128861819286A
:100020000C2800302120A10A210830202720880038
:100030000C2800302120A10321083020272088002F
:100040000C28831203178D008312031308008316F4
:1000500003170C14831203170C08831203130800F0
:10006000831203178C00831603170C158B1355305E
:100070008D00AA308D008C148B178C183D280C1124
:06008000831203130800C7
:00000001FF
