:020000040000FA
:020000000528D1
:080008002928C0308B0083168B
:100010000C1483160313860188018312113090009B
:100020000130A1000130860001308800FA30A200C2
:10003000D13083160313810083120313063081002D
:10004000831203138B168B1715308F00A0308E0090
:1000500053280B1D2E28A20B332837200C1C090017
:10006000A10B40284828063081000B11090083129B
:100070000313860D06308100FA30A2000B11080030
:10008000831203130C1015308F00A0308E0009006E
:10009000831203130C10880C15308F00A0308E00D3
:0800A0000130A1000900532802
:00000001FF
