:020000040000FA
:02000000B7281F
:08000800B62882074834753464
:100010007A34653479346634653400344B346F3463
:100020006334613462346134733400344D34693480
:100030006B3472346F34693473346C3465346D34BA
:10004000633469346C346534723400340F39A4007D
:100050000608F03924048600831203138616013043
:10006000AA2086120130AA200800A300230E8312C2
:1000700003130612262023088312031306122620D8
:100080000800A300230E831203130616262023085C
:100090008312031306162620080001303520013094
:1000A000AA2008000F30352008000C303520080049
:1000B00083160608F039860086120612061383128C
:1000C00086010130AA208312031306120330262072
:1000D0001430AA208312031386160130AA20861238
:1000E0000A30AA208312031386160130AA20861232
:1000F0000A30AA20831203130612023026200A3087
:10010000AA2028303520103035200130352001302C
:10011000AE20063035200C3035200800840004085D
:10012000840A052000380319080041208F288030F8
:10013000A608031DC030270735200800A000FF30A7
:10014000A100FF30A200A20BA328A10BA128A00BA5
:100150009F280800A000A00BAB280800A000FF30DB
:10016000A100A10BA128A00B9F280800090058207E
:1001700055200030A6000030A700972000308E20C8
:100180000030A6000930A700972008308E200130EB
:10019000A6000130A700972010308E20FF309E204F
:00000001FF
