:10000000000000308A00A8288030A100FE30622065
:10001000013062207530A70030308F28A101A11770
:10002000AD00FE3062202D086228AB00861006105D
:100030008316861006100F30860583122B08A01831
:100040003F283E30A70080308F203330AA00532055
:100050001330A70088308F20532064308E20532027
:1000600064308E202230AA00532028303E200C30ED
:100070003E2006303E20A0142B083F282014AA0062
:10008000201C4D280610033C031C52285220073028
:10009000A700D0308F20031408002014FE3C031961
:1000A00060280614201C201086140F3086052A08AC
:1000B000F03986048610AA0E2018532832308E207C
:1000C0002B08A328A11B15280800A400A2012408BE
:1000D00003178D000313250803178F0078200319D9
:1000E000A3286220A40A0319A50AA20F6728A3283F
:1000F000831603178C170C140000000083120C08E1
:10010000A328A901A800FF30A807031CA907031C06
:10011000A3280330A700DF308F208328A701E83E03
:10012000A600A709FC30031C9828A60703189528E9
:10013000A6070000A70F952826189E28A61CA2280F
:100140000000A22808008313831203130000080094
:10015000A001073083169C0007309F00051085140E
:10016000963083128A0181208A01042064308A013A
:1001700081208A110A12851CD5288030A100803088
:100180008A010E200030A500EC308A016520803005
:10019000A100C0308A010E200030A500FD308A0188
:1001A000652005148A110A12EA288030A1008030E7
:1001B0008A010E200130A5000E308A0165208030B2
:1001C000A100C0308A010E200130A5001F308A0135
:1001D000652005108A01B9283200330020004E0046
:1001E0006900730061006E002000310039003200A8
:1001F00030002000200020000000540042004D008C
:100200004D0020006E0069006E0020006100630058
:1002100069006C0069007300690000003200390059
:10022000200045006B0069006D002000310039009E
:100230003200330020002000200020000000430096
:1002400055004D0048005500520049005900450036
:100250005400200049004C0041004E0049000000BD
:02400E00323F3F
:00000001FF
