:020000040000FA
:020000000528D1
:0800080009280E202E201A2009
:100010000828831203131A084620090083160313C5
:10002000860183160313FF308700831203138601B2
:1000300087010800831603133330990083160313D6
:100040000430980083120313903098008312031336
:100050008B170B17831603138C16080002303720FA
:10006000283037200C303720803037200800A1009E
:10007000210E3D2021083D2008000F398600831203
:10008000031306128616552086120800A100210EC1
:100090004C2021084C2008000F39860083120313DE
:1000A000061686165520861208004030A000A00BC8
:0400B00057280800C5
:00000001FF
