:020000040000FA
:100000003F28831203178D00831203130800831601
:1000100003170C14831203170C0883120313080030
:10002000831203178C00831603170C158B1355309E
:100030008D00AA308D008C148B178C181D280C1184
:100040008312031308002108012021088820003AA8
:10005000031908001020A10A2328210801200720E5
:10006000211A35286120A10A2D2876202108012097
:100070000720A11A3E286120A10A36283E288316AF
:100080000313860146202320A1012D2002304F209A
:1000900006304F2028304F200C304F2008008312AC
:1000A0000313A500250E57202508572008008312AA
:1000B00003130F3986008312031306127F20732067
:1000C000080083120313A500250E69202508692066
:1000D0000800831203130F398600831203130616D8
:1000E0007F2073200800861686120800C0304F203B
:1000F0000800803E4F200800C03E4F2008002030FE
:10010000A2002030A300A30B8328A20B81280800A3
:1001100082075A3449345934413420344F345A34E4
:10012000433445344C3449344B3420342034203467
:100130002034423449344C34473449345334413404
:1001400059344134523420344D34553448342E34EB
:040150002E34003415
:00000001FF
