:020000040000FA
:10000000831603138601870183160313FF308800CC
:100010008312031388018312031387010230A9207E
:100020000230A9200030A9200030A9200E30A920DC
:100030000030A9200630A9205330B2204930B22028
:100040004630B2205230B2204530B2202030B220AB
:100050004730B2204930B2205230B2203D30B22079
:10006000831203130130870083120313881C342882
:10007000B220C620C62083120313043087008312E7
:100080000313081C3F28B220C620C6208312031386
:100090000230870083120313081C4A28B220C620AE
:1000A000C620831203130230870083120313881DB6
:1000B0005528B220C620C620831203138030870043
:1000C000C620C620C620C620C620C620C620C62000
:1000D000C620C620C620C620C620C620C620C620F0
:1000E000C620C620C620C620C620C620C620C620E0
:1000F000C620C620C620C620C620C620C620C620D0
:10010000C6208312031387010230A9200230A920E0
:100110000030A9200030A9200E30A9200030A920ED
:100120000630A9204830B2204F30B2205330B220E0
:100130004730B2204530B2204C30B2204430B2209B
:100140004930B2204E30B2204930B2205A30B2206D
:10015000A828A200A216221222088600C620C120CA
:10016000C6200800A200220EB8202208B8200800ED
:1001700083120313860086160616C620C120C620E9
:100180000800831203138612061208000F30A00025
:0E019000FF30A100A10BCA28A00BC828080050
:043000000034003464
:00000001FF
