:020000040000FA
:1000000083160313880183120313880183160313D5
:10001000F0308500831203130E3085003F308800D6
:100020000A303720063088000A3037205B308800DD
:100030000A3037204F3088000A3037206630880079
:100040000A3037206D3088000A3037207D30880034
:100050000A303720073088000A3037207F30880088
:100060000A3037206F3088000A3037200E28A00071
:10007000FF30A100FF30A200A20B3C28A10B3A28C0
:06008000A00B3828080067
:00000001FF
