:1000000001288501860187018801A001A101A201C3
:10001000A301A401A501A601A701A801A901AA01A4
:10002000AB01AC01AD01AE01AF0141309F008316C1
:10003000FF30850086018701880189018F309F008C
:10004000873081008312C5207428FA30AE00AE0BD1
:100050002728FA30AE00AE0B2B281F151F192E28AB
:1000600083161E088312A2001E08A10008000A3091
:10007000AD009630AC00AC0B3B28AD0B3928080026
:100080000030A400A500A600A70064302002031CD5
:100090004D286430A002A50A45280A302002031C1E
:1000A00055280A30A002A60A4D2801302002031C60
:1000B0005D280130A002A70A552808002520220843
:1000C000A00040208A2024082802031D7428250847
:1000D0002902031D742826082A02031D74282708F4
:1000E0002B02031D74285E282408A8002508A900F7
:1000F0002608AA002708AB00C5202808303EBF20EC
:100100002908303EBF202A08303EBF202B08303E51
:10011000BF205E2800302102031908002118A928F9
:10012000A118B12808000A3027020318A0200A30BD
:1001300026020318A3200A3025020318A62008006F
:10014000A700A60A0800A600A50A0800A500A40AA0
:1001500008000230A5070530A6070630A707932040
:1001600090280530A5070130A6070230A707932085
:100170000800C030CE2008008030CE200800871450
:10018000860007103720071408000C30CE200130FD
:10019000CE203830CE200C30CE20080087108600CC
:0801A0000710372007140800C6
:02400E00323D41
:00000001FF
