:020000040000FA
:020000000528D1
:08000800262883160313F030D3
:100010008600870188308B008312031387018601D5
:100020000130A10002303320023033200030332071
:10003000003033200E3033200030332006303320A0
:1000400021088600A10D211A302020280B1C090050
:100050000B1003303C2006083C2086018701090074
:100060000130A1000800B500B5163512350887002B
:1000700045204E2045200800B500B5163516350838
:10008000870045204E2045200800FF30B300FF3098
:10009000B400B40B4928B30B47280800831203139C
:0600A000871207120800A0
:043000000034003464
:00000001FF
