:020000040000FA
:020000002128B5
:0800080005280B1D09000B1176
:10001000A50B09003D30A500B00A0A303002031DCF
:10002000122815283008A8000900053029020319F4
:100030001D28A90AB001A8010900B001A801A90161
:1000400009008316031306309F00850186010530E1
:10005000810083120313A801A901B1013D30A5005D
:10006000E4308B00013085002808442086003F20C2
:10007000023085002908442086003F203228FA30CB
:10008000A600A60B4128080082073F3406345B34E3
:0E0090004F3466346D347D3407347F346F3462
:02400E00313F40
:00000001FF
